:020000040800F2
:10000000100500205D1B0008A91A0008AB1A0008A3
:10001000AD1A0008AF1A0008B11A0008000000006D
:10002000000000000000000000000000B31A0008FB
:10003000B51A000800000000B71A0008B91A000835
:10004000851B0008891B00088D1B0008911B0008F8
:10005000951B0008991B00089D1B0008A11B0008A8
:10006000A51B0008A91B0008AD1B0008B11B000858
:10007000B51B0008B91B0008BD1B0008C11B000808
:10008000C51B0008C91B0008CD1B0008D11B0008B8
:10009000D51B0008D91B0008DD1B0008E11B000868
:1000A000E51B0008E91B0008ED1B0008F11B000818
:1000B000F51B0008F91B0008FD1B0008011C0008C7
:1000C000051C0008091C00080D1C0008111C000874
:1000D000151C0008191C00081D1C0008211C000824
:1000E000251C0008291C00082D1C0008311C0008D4
:1000F000351C0008391C00083D1C0008411C000884
:10010000451C0008491C00084D1C0008511C000833
:10011000551C0008591C00085D1C0008611C0008E3
:10012000BD1A0008651C0008691C00086D1C000849
:10013000711C0008751C0008791C00087D1C000853
:10014000811C0008851C0008891C00088D1C000803
:10015000911C0008951C0008991C00089D1C0008B3
:10016000A11C0008A51C0008A91C0008AD1C000863
:10017000B11C0008B51C0008B91C000800000000F4
:10018000BD1C0008C11C000870B5044600250CB950
:10019000012070BD04F13006306928B9204600F016
:1001A000C1FA0020706130733069C10600F192809D
:1001B0003069DFF86C1420F4885040F002003061A0
:1001C000086820F4403008600A68606802430A60EA
:1001D0002068416821F4807141602068416822698B
:1001E00041EA022141602068416821F0407141608C
:1001F00021684A68A06802434A602068816821F447
:100200000061816021688A68E06802438A60206832
:10021000A16ADFF810249142816821F07061816049
:100220000CD021688A68A06A02438A6000F05BF8FB
:1002300021688A68E06A02438A6001E000F053F8AE
:100240002068816821F0020100F049F8227E41EA2D
:100250004201816094F820002168002848680FD08E
:1002600040F4006048602068416821F460414160CA
:1002700020684168626A521E41EA4231416002E0F0
:1002800020F4006048602068C16A21F47001C162F6
:100290002068C16AE269521E41EA0251C1622068C7
:1002A000816821F4007100F01AF8327841EA4221A5
:1002B00000F015F821F4806100F011F8626941EA5C
:1002C00082218160002070610120316960F30101A9
:1002D000316100E0012500203073284670BD816047
:1002E0002068816870472068816821F040518160F2
:1002F0007047F8B50C46064606F13C053068816843
:100300004A050AD58068C10507D5686840F0200015
:100310006860002129700120F2BD00F08FFA0746C5
:10032000306801688A0714D414F1010FF8D024B1A1
:1003300000F084FAC01B8442F2D2306801688A0758
:10034000EED4686840F00400686000212970032042
:10035000F2BD6FF012020260686840F400706860DD
:100360003168886810F0405F04BF307E002811D1EA
:10037000C86A10F4700F02D0886841050AD4686812
:1003800020F4807068606868C10403D4686840F035
:10039000010068600020F2BD126802F01F02102AFE
:1003A0007047016841F0804101607047816841F009
:1003B000804181607047816811F0405F7047F8B5F7
:1003C0000446002004F13C0300901D78012D01D16A
:1003D0000220F2BD0120187020688568EE070DD458
:1003E0008568964E45F00105856095480568B5FB22
:1003F000F6F606EB4606009600F00AF920688568D6
:10040000EE0503D5856825F4807585602568A868A4
:10041000C60760D55F688748074047F480775F600C
:100420006868450504D55D68012060F30D355D60A1
:100430005868C50446BF986820F006000020986000
:1004400000251D70A36B0FF2FD10D863A36B0FF294
:100450005D201864A36B0FF25D20D8646FF022005A
:10046000256828602068436843F080634360134632
:100470002068856845F4807585600A46206800F12B
:100480004C01A06B00F057FA2068654A6A4913686E
:1004900013F01F0F15D188420DD06349884204D153
:1004A000126812F01F0F1ED105E0604988421AD170
:1004B000FFF772FF17D2FFF77EFF14D1FFF776FF29
:1004C00011E0884202BF5A48016811F0405F0AD12A
:1004D000FFF767FF07E0586840F010005860986821
:1004E00040F0010098600020F2BD78B5024600207F
:1004F000009092F83C30012B01D1022072BD012006
:1005000082F83C0007240B6810680A2B12D30A3BC0
:10051000C56803EB43039C4025EA0404C460C36838
:100520000D688C68A5F10A0606EB4606B440234325
:10053000C3600FE0056903EB430304FA03F325EA04
:100540000303036103690D688C6805EB4505AC4046
:10055000234303611F244B68072B0CD25B1E456BA2
:1005600000F050F84463436B4D680C886E1E00F039
:1005700044F843631BE00D2B0CD2DB1F056B00F02E
:1005800041F80463036B4D680C88EE1F00F035F8EA
:1005900003630CE00D3BC56A00F034F8C462C36A23
:1005A0004D680C88A5F10D0600F027F8C362224BB8
:1005B00098421DD10C681A48122C03D1036843F4E9
:1005C000800303600B68102B18BF112B10D1036838
:1005D00043F4000303600868102809D11849174C38
:1005E0000B68B3FBF4F40A204443009400F010F8C5
:1005F000002182F83C10002072BD06EB8606B44054
:100600002343704703EB83039C4025EA04047047AF
:1006100002E00098401E009000980028F9D1704731
:10062000042301400100000F00210140002201408D
:1006300008200140FEF9FFFF0020014040420F006A
:100640000C000020816B0A6C12F0500F24D1086C52
:1006500040F4007008640A68906810F0405F04BFBE
:10066000087E002815D1D06A10F4700F02D090686F
:1006700043050ED4506820F020005060086C20F430
:1006800080700864086CC20403D4086C40F0010058
:100690000864084600F08CBA0A6CD30644BF0846CA
:1006A00000F087BA896BCA6C10470000806B00F0BD
:1006B00081BA0000806B40210164426C42F0040268
:1006C000426400F076BA0EE00268436802440830E3
:1006D0005FEAC37C44BF4B445B1E52F804CB43F833
:1006E00004CB091FF9D150F8041B0029ECD1704745
:1006F00081B00020009000224948416841F48041C7
:100700004160416801F480410091009900920368C2
:1007100043F080530360006800F080500090009820
:1007200001B0704738B586B000F074F821683D48D4
:1007300081423BD100223C483C4D0092416941F44A
:1007400080714161416901F48071009100990092CA
:100750000321036843F00103036000F055F80191A1
:1007600002910021039101A9314800F025FA0021EE
:100770006960E9604FF480612E48286029614FF478
:10078000006068614FF40051A9614FF4807000224D
:10079000E8614FF44031AA6029626A62284600F09D
:1007A00053F808B100F01AFCA563AC6307B030BD84
:1007B00010B586B000F02EF821681F48814221D183
:1007C000002219480092416941F0100141614169DC
:1007D00001F010010091009900924FF4C06103688C
:1007E00043F001030360022200F00EF8104801916B
:1007F000029200210391032207210591049201A98D
:1008000000F0DAF906B010BD006800F001000090B9
:100810000098704704461422002101A800F0E0BBB4
:10082000403802400020014030380240AC00002037
:10083000000002401064024000100140014840687E
:10084000704700BF0000002070B50446FFF7F6FFB8
:1008500006460CB9012070BD04F134050220687011
:100860000021297020680268520852000260226844
:100870001068C1070AD5FFF7E1FF801B0628F6D3F1
:100880002020286203216970032070BD1368DFF8FF
:10089000A41260680B40A1680343E0680B43216920
:1008A000034360690B43A1690343E0690B43216A79
:1008B0000343606A1943042803D1E06A0843216BAB
:1008C0000143116023685A69606AD208042840EA2B
:1008D000C2020AD1A66AE16A324331B1A06988B97D
:1008E000002E18BF022E1FD016D35A61204600F0EA
:1008F00047F9A96A3F228A408260002028620121CC
:10090000697070BDB0F5005F0AD1032EEDD8DFE845
:1009100006F00D0B0D03E8E7B1F1C07FE5D105E06E
:10092000022E03D9F61EE0D1C801DED5402129628E
:100930000120687070BDF8B5044604F13406002546
:100940003078776A012801D10220F2BD0120307091
:1009500096F801C0BCF1010F1FD102207070AC46A7
:10096000C6F820C0204600F0FBF8B06A3F2101FA2B
:1009700000FCC7F808C02068016841F0160101605A
:10098000F06820B12068016841F00801016020682A
:10099000016841F00101016001E03570022528463F
:1009A000F2BD2DE9FC41044604F134060020624901
:1009B00000904FF41650776A0A683D68B2FBF0F871
:1009C000B06A082101FA00F005420ED020680268E2
:1009D00053070AD5026822F004020260B06A81401F
:1009E000B960316A41F001013162B06A25FA00F163
:1009F000CA070BD521684A69110607D5012202FAF8
:100A000000F0B860306A40F0020030620421B06A41
:100A100081400D4208D022681068830704D5B96070
:100A2000306A40F0040030621021B06A81400D420B
:100A30001BD022681068030717D5B96020680168C9
:100A40004A0307D5006801030BD5716969B12046D7
:100A500088470AE00168CA0503D4016821F008014B
:100A60000160F16809B120468847B06A20218140C1
:100A70000D423FD022681068C3063BD5B96020689C
:100A8000717805291CD1026822F01602026000F07C
:100A900055F8F068002804BF7069002801D000F004
:100AA00059F83F22B06A8240BA600121717000207B
:100AB000F1693070002939D02046BDE8FC41084773
:100AC00001684A0307D5006801030FD4316989B171
:100AD000204688470EE00168CA0507D4016821F066
:100AE000100101600120707000213170B16809B1FE
:100AF00020468847306AC8B1306AC10710D5052042
:100B0000707000F021F80098401C8045009003D3DD
:100B100020680168CA07F6D4012070700021317086
:100B2000B16919B12046BDE8FC410847BDE8F38131
:100B3000000000003F8010F00C0000202068416998
:100B400021F080014161704720680168490849002F
:100B5000016070472068016821F00801016070475A
:100B600030B50468256825F48025256063608068B9
:100B7000402802D1A260E16030BDA160E26030BDDA
:100B800030B501461823086807A400F0FF02103AA8
:100B9000B2FBF3F2800AA55CCD658002042A28BF6F
:100BA000001D886530BD00000006101600061016F6
:100BB00070477047704700002DE9F84F0D4600263A
:100BC0007249734A0F23044601202F68B04000EA9F
:100BD0000708804540F0D4804FEA460C032707FA07
:100BE0000CF76FEA070E6F6807F00309B9F1010F00
:100BF0001CBF07F00307022F12D1A768D5F80C908D
:100C00000EEA070709FA0CF949EA0707A7606768BF
:100C100027EA00006F68C7F30017B74038436060E9
:100C2000B0002F7907F00307032F21D0E768D5F82C
:100C300008900EEA070709FA0CF949EA0707E76086
:100C40002F7907F00307022F12D1F70804EB87076B
:100C500000F01C09D7F820A003FA09FB2AEA0B0AC6
:100C6000D5F810B00BFA09F949EA0A09C7F820903B
:100C700027680EEA070E2F7907F0030707FA0CF72B
:100C800047EA0E0CC4F800C06F6817F4403F77D0F5
:100C90004FF0000ECDF800E04FEA960C176847F4CD
:100CA0008047176000F00C00D2F800E0394F0EF4D6
:100CB000804ECDF800E0DDF800E057F82CE003FAB4
:100CC00000F72EEA070E344FBC4208BF002722D09F
:100CD000324FBC4208BF01271DD0314FBC4208BF74
:100CE000022718D02F4FBC4208BF032713D02E4F26
:100CF000BC4208BF04270ED02C4FBC4208BF0527BA
:100D000009D02B4FBC4208BF062704D0294FBC4254
:100D10000CBF0727082707FA00F040EA0E00DFF8AB
:100D200074E04EF82C006FEA0800D1F808C06F6834
:100D300000EA0C0CFF0248BF48EA0C0CC1F808C0DE
:100D4000D1F80CC06F6800EA0C0CBF0248BF48EA3B
:100D50000C0CC1F80CC0D1F804C06F6800EA0C0C90
:100D6000BF0348BF48EA0C0CC1F804C0D1F800C06A
:100D70006F6800EA0C00FF0348BF48EA0000086003
:100D8000761C0F2E7FF620AFBDE8F18F003C0140AE
:100D9000443802400838014000000240000402408C
:100DA00000080240000C0240001002400014024003
:100DB00000180240001C02407FB500F01BF900F053
:100DC000AEF8002000907E4C7E48016841F0800122
:100DD000016004F13005026802F0800200920022F6
:100DE00000990092036843F001030360016801F079
:100DF00001010091009900920021036843F48003EF
:100E00000360006800F4800000900098382000F033
:100E100025F9382000F03FF910220021684600F043
:100E2000DFF8694820604FF480310120206120768E
:100E30006160002084F8200000216448A062E16223
:100E4000E16002204FF08072E0610121A260297010
:100E500061612046FFF798F908B100F0BFF8002063
:100E60000121009001910622029269462046FFF777
:100E70003CFB08B100F0B2F801210091022201927E
:100E800069462046FFF731FB08B100F0A7F850484B
:100E9000A8624FF41651E962002028636863A863D2
:100EA0000C2128646864E96304F1580000F01EF91D
:100EB00008B100F093F8022204F150012046FFF738
:100EC0007EFA4FF0FF312046FFF713FA288C698C29
:100ED000020A0B0A6A76EB762876A9762A7E6B7E62
:100EE000AE7EA8845A40EB7EE98472405A402A774D
:100EF00004F1580000F08FF92028E2D16423042285
:100F000004F1480104F1580000F02DF96423012296
:100F100004F14C0104F1580000F025F9D1E780B547
:100F200092B03022002106A800F05AF814220021C5
:100F300001A800F055F8002000902648016841F013
:100F4000805101600021006800F0805000900098FE
:100F5000214800910221026842F48042026001228D
:100F6000006800F4804000900098069109921021DA
:100F70000A91022200210C920D910822A8210E92C2
:100F80000F91022204211092119106A800F0F8F9A5
:100F900008B100F023F802210291002203920F20F1
:100FA0004FF4A051019004914FF480520592052115
:100FB00001A800F075FB08B100F010F813B000BDF7
:100FC0001000002030380240002001400100000FD6
:100FD00000100140403802400070004072B6FEE749
:100FE00010B5044610460A460146204600F0FEFBB6
:100FF000204610BD80B50B48016841F400710160C6
:10100000026842F480620260016841F4807101600C
:10101000032000F016F80F2000F01CFCFFF768FB1F
:10102000002002BD003C02400901020002D4284811
:1010300081547047274B02F00F021A4402F8041C37
:101040007047254B19684FF6FF020002114000F46B
:10105000E0600843214908431860704770B51E4B93
:101060001C68C4F302230124C3F10705052D2EBF1C
:101070000F2504FA05F56D1E1E1D072E34BF002333
:10108000DB1E2940994004FA03F3BDE870405B1E63
:101090001A401143C8E7010007D4012200F01F01E4
:1010A0000F4B8A40400943F820207047401EB0F1A2
:1010B000807F01D3012070470A490B4A4860002312
:1010C000F02010708B60072008600020704700003F
:1010D00000E400E018ED00E00CED00E00000FA058F
:1010E00000E100E010E000E023ED00E038B504008E
:1010F00001D1012032BD00F019F808B900F01AF84A
:1011000000F01DF800F025F8FFE7416100F001F85C
:1011100032BD2068C16841F40051C16000206860A0
:10112000202169702020A8700020704704F13C0540
:1011300068787047002129702046FFF739BB2420CA
:1011400068702068C16821F40051C160204600F039
:10115000B3B82068016921F49041016120684169B8
:1011600021F02A0170472DE9F843054605F13C06B8
:101170000C46707820281746994649D10CB13800A2
:1011800001D1012045E03078012841D001213170A2
:101190000020706021227270FFF750FBAF84804600
:1011A000EF84A868B0F5805F04BF286900280EBFEF
:1011B0002746204600270021317004460EE014F82F
:1011C000012B426007E02868002CF8D137F8021B99
:1011D000C1F308014160E88C411EE9844346E88C74
:1011E000CDF80090002807D000228021284600F08A
:1011F00018F80028E7D005E000224021284600F03A
:1012000010F808B1032004E020207070002000E0F6
:101210000220BDE8F28300F13D01087849780843D7
:1012200070472DE9F041069C05460E4690461F4644
:10123000286801683140B1420CBF012000204045C0
:101240001CD114F1010FF3D024B1FFF7F7FAC01B42
:101250008442EDD200F01BF821F4D07100F013F8B5
:10126000F8D100F01CF8FCD105F13C0020214170C0
:101270002022827000210170032000E00020BDE8E0
:10128000F08121F0100143E8001000287047286821
:1012900000F10C0151E8001F00F10C0370472868B1
:1012A00000F1140151E8001F490800F1140349003E
:1012B00043E800100028704770B5044622681169A1
:1012C000E06821F4405101431161D3682648A168C8
:1012D000034020690B4361690343E0690B43034307
:1012E000D3605169A06921F44071014351611F49E4
:1012F0008A421CBF1E48824202D100F05FFA01E020
:1013000000F054FA62682568E4691921B4F5004FC9
:10131000A1FB00016FF0630612D1D30F520000F061
:10132000B9FA00F027F8F60032366420B6FBF0F088
:10133000420002F4F87202EB011200F0070010E024
:10134000930F920000F0A6FA00F014F8360132363E
:101350006420B6FBF0F000F0F00202EB011200F0A6
:101360000F008018A86070BDF369FFFF00100140F6
:10137000001401406421B0FBF1F106FB0106704747
:101380002DE9F843040016D02078DFF80463C10784
:1013900013D5B06800F00C00042807D0B06800F046
:1013A0000C0008283DD1706841023AD530688103AD
:1013B00003D56068002800F065812078B54F81076B
:1013C00019D5B06810F00C0F07D0B06800F00C0011
:1013D00008285BD17068410258D43068810703D572
:1013E000E068012840F04E813168206921F0F80161
:1013F00041EAC00131602178080779D56069A649C2
:10140000002868D001220A60FFF718FA0546706FBD
:1014100081076DD4FFF712FA401B0228F7D9032089
:1014200033E16068B0F5803F04D1306840F480302B
:10143000306011E0B0F5A02F306806D140F4802074
:101440003060316841F4803105E020F48030306054
:10145000316821F480213160606858B1FFF7EEF9FE
:10146000054630688103A8D4FFF7E8F9401B6528DA
:10147000F7D3D4E7FFF7E2F90546306881039CD53E
:10148000FFF7DCF9401B6528F7D3C8E7E068A8B18F
:1014900001213960FFF7D2F905463068810705D48C
:1014A000FFF7CCF9401B0228F7D9B8E7306821696B
:1014B00020F0F80040EAC10030609CE73860FFF798
:1014C000BDF905463168880795D5FFF7B7F9401B88
:1014D0000228F7D9A3E70860FFF7B0F90546706F57
:1014E000810705D5FFF7AAF9401B0228F7D996E72F
:1014F0002078410760D5306C0025C1000BD4002056
:1015000000900125316C41F080513164306C00F065
:10151000805000900098DFF88481D8F80000C10561
:1015200013D4D8F8000040F48070C8F80000FFF72A
:1015300085F98146D8F80000C10506D4FFF77EF989
:10154000A0EB09000228F5D969E7A068012805D0B9
:101550000528306F06D140F004003067306F40F04E
:10156000010005E0400840003067306F20F00400C3
:10157000306741F28938A06860B1FFF75FF98146B2
:10158000306F810713D4FFF759F9A0EB09004045EC
:10159000F6D344E7FFF752F98146306F810706D54D
:1015A000FFF74CF9A0EB09004045F6D337E71DB132
:1015B000306C20F080503064A069002864D0B1689D
:1015C00001F00C0108293AD002282AD100203866FF
:1015D000FFF734F905463068810105D5FFF72EF98C
:1015E000401B0228F7D91AE7E069216A626A0843BA
:1015F000A16A490840EA8210491E40EA0140E16AB6
:1016000040EA0160706001203866FFF717F9044670
:101610003068810138D4FFF711F9001B0228F7D98F
:10162000FDE600203866FFF709F9044630688101BD
:101630002AD5FFF703F9001B0228F7D9EFE60128A6
:1016400020D07068E26900F48001914202BF00F08E
:101650003F01226A914201BF47F6C0710140626AB0
:10166000B1EB821F0ED1A26A00F4403101F5803146
:101670005208B1EB024F02BF00F07060E16AB0EBBC
:10168000016F01D0012000E00020BDE8F28300BF1F
:101690000038024000004742800E47420070004080
:1016A0002DE9F04104000F4654D0494E306800F057
:1016B0000700B84202D200F073F84BD12068454DC4
:1016C000810712D5400703D5A96841F4E051A9600C
:1016D0002078010703D5A86840F46040A860A96895
:1016E000A06821F0F0010143A9602178C80729D53D
:1016F0006068012802D129688A0305E0022818BF22
:10170000032803D129688A0103D423E029688A07C2
:1017100020D5A968890840EA8100A860FFF78EF803
:101720008046A868616800F00C00B0EB810F09D01A
:10173000FFF784F8A0EB080041F289318842F0D32A
:1017400003202BE0306800F00700874204D200F04D
:1017500027F801D0012021E02078410705D5AA68AB
:10176000E06822F4E0520243AA602178080706D517
:10177000A968206921F4604141EAC001A96000F034
:101780000DF9AA681449154BC2F30312895CC840CD
:1017900018601348006800F05DF80020BDE8F08193
:1017A0003770316801F00701B94270470B480D4AA4
:1017B000006813680C49C3F3822206E00748094A0F
:1017C000006813680849C3F34232895CC840704717
:1017D000003C024000380240E81A00080C000020DB
:1017E00008000020083802407C1B000862F30F222A
:1017F00062F31F42401810F0030308D0C91A1FD328
:10180000DB0748BF00F8012D28BF20F8022D130088
:1018100030B414461546103928BF20E93C00FAD8E8
:10182000490728BF20E90C0048BF40F8042D890073
:1018300028BF20F8022D48BF00F8012D30BC7047AA
:10184000C91818BF00F8012DCB0728BF00F8012DDB
:101850007047000038B50D4D0D4B2A7804464FF403
:101860007A711868B1FBF2F2B0FBF2F0FFF71EFCE0
:1018700050B9102C08D2002221464FF0FF30FFF75C
:10188000EDFBAC60002032BD012032BD0000002025
:101890000C000020D3BBD9B1B2F5803F5BD2022A45
:1018A0001ED98C46B1FBF2F102FB11C31B0443EAC3
:1018B0001043B3FBF2FC02FB1C3380B240EA03434B
:1018C000B3FBF2F002FB103240EA0C4000237047F9
:1018D000022A05D98446B0FBF2F002FB10C2704721
:1018E0004AB105D100F0010249085FEA30007047B3
:1018F00000220023704700F081B80B000200002195
:1019000000207047F7D3002200237047904271EB0C
:10191000030CF2D370B5B1FA81F4B3FA83F52C1B42
:10192000A340C4F1200532FA05F63343A2405FF02C
:101930000046E64002E05B085FEA3202841A71EB7F
:10194000030524BF204629467641F4D302000B004C
:101950003000002170BD70B5B1FA81F4B2FA82F5A1
:10196000C4F120046419B4F12006DAD3B2405FF068
:101970000044F440002502E052085FEA3303C61A2F
:1019800071EB020E24BF3046714664416D41F3D3C2
:1019900002000B002000290070BD000030B5144C7F
:1019A000606800F00C00042802D0082802D01DE076
:1019B000104830BD226820680023410202F03F0237
:1019C00004D525680B49C5F3881003E020680A494F
:1019D000C0F38810A1FB0001FFF75CFF2168C1F391
:1019E0000141491C4900B0FBF1F030BD024830BD57
:1019F0000438024000127A000024F400704730B42A
:101A0000002512E050F8042BD30744BF4A44521E6D
:101A1000091F042942F8045BFAD213468C0744BF1D
:101A200015809B1CC90748BF1D7050F8041B002976
:101A3000E8D130BC7047000010B50749794418312F
:101A4000064C7C44163404E00A68081D114488479B
:101A50000146A142F8D110BD2C0000004C0000004E
:101A60004EF68851CEF20001086840F4700008601C
:101A7000BFF34F8FBFF36F8F4FF00170E1EE100A8D
:101A8000704700007BFFFFFFFC00000010000020FB
:101A90000000000033ECFFFF10000000D000000049
:101AA0000000002000000000FEE7FEE7FEE7FEE782
:101AB000FEE770477047704700F006B80148FEF730
:101AC00070BF0000AC0000200248416802788A180C
:101AD00042607047000000200248016841F4700134
:101AE0000160704788ED00E0000000000000000089
:101AF000010203040607080900F00DF8002801D0D0
:101B0000FFF79AFFAFF300800020AFF30080FFF7EC
:101B100053F900F002F80120704700F001B800000E
:101B20000746384600F002F8FBE7000080B5AFF347
:101B30000080024A11001820ABBEFBE7260002001D
:101B40000548014603B4684680F30988AFF3008076
:101B5000FFF786FFFFF7D0FFA5EDF5FE01488047B0
:101B600001480047D91A0008411B00080100000085
:101B700000000000100000000024F400000000003D
:101B800001020304FFF7FEBFFFF7FEBFFFF7FEBF32
:101B9000FFF7FEBFFFF7FEBFFFF7FEBFFFF7FEBF79
:101BA000FFF7FEBFFFF7FEBFFFF7FEBFFFF7FEBF69
:101BB000FFF7FEBFFFF7FEBFFFF7FEBFFFF7FEBF59
:101BC000FFF7FEBFFFF7FEBFFFF7FEBFFFF7FEBF49
:101BD000FFF7FEBFFFF7FEBFFFF7FEBFFFF7FEBF39
:101BE000FFF7FEBFFFF7FEBFFFF7FEBFFFF7FEBF29
:101BF000FFF7FEBFFFF7FEBFFFF7FEBFFFF7FEBF19
:101C0000FFF7FEBFFFF7FEBFFFF7FEBFFFF7FEBF08
:101C1000FFF7FEBFFFF7FEBFFFF7FEBFFFF7FEBFF8
:101C2000FFF7FEBFFFF7FEBFFFF7FEBFFFF7FEBFE8
:101C3000FFF7FEBFFFF7FEBFFFF7FEBFFFF7FEBFD8
:101C4000FFF7FEBFFFF7FEBFFFF7FEBFFFF7FEBFC8
:101C5000FFF7FEBFFFF7FEBFFFF7FEBFFFF7FEBFB8
:101C6000FFF7FEBFFFF7FEBFFFF7FEBFFFF7FEBFA8
:101C7000FFF7FEBFFFF7FEBFFFF7FEBFFFF7FEBF98
:101C8000FFF7FEBFFFF7FEBFFFF7FEBFFFF7FEBF88
:101C9000FFF7FEBFFFF7FEBFFFF7FEBFFFF7FEBF78
:101CA000FFF7FEBFFFF7FEBFFFF7FEBFFFF7FEBF68
:101CB000FFF7FEBFFFF7FEBFFFF7FEBFFFF7FEBF58
:041CC000FFF7FEBF6D
:0400000508001B4193
:00000001FF
